{
  "_format": "hh-sol-artifact-1",
  "contractName": "TimeWarpPool",
  "sourceName": "contracts/TimeWarpPool.sol",
  "abi": [
    {
      "anonymous": false,
      "inputs": [
        {
          "indexed": false,
          "internalType": "enum StakingLocks.LockType",
          "name": "_lockType",
          "type": "uint8"
        },
        {
          "indexed": false,
          "internalType": "uint256",
          "name": "_amount",
          "type": "uint256"
        },
        {
          "indexed": false,
          "internalType": "uint32",
          "name": "_lastRewardIndex",
          "type": "uint32"
        }
      ],
      "name": "Compound",
      "type": "event"
    },
    {
      "anonymous": false,
      "inputs": [
        {
          "indexed": false,
          "internalType": "enum StakingLocks.LockType",
          "name": "_lockType",
          "type": "uint8"
        },
        {
          "indexed": false,
          "internalType": "uint256",
          "name": "_amount",
          "type": "uint256"
        },
        {
          "indexed": false,
          "internalType": "uint256",
          "name": "_amountStacked",
          "type": "uint256"
        }
      ],
      "name": "Deposit",
      "type": "event"
    },
    {
      "anonymous": false,
      "inputs": [
        {
          "indexed": false,
          "internalType": "enum StakingLocks.LockType",
          "name": "_lockType",
          "type": "uint8"
        },
        {
          "indexed": false,
          "internalType": "uint256",
          "name": "_amount",
          "type": "uint256"
        },
        {
          "indexed": false,
          "internalType": "uint32",
          "name": "_lastRewardIndex",
          "type": "uint32"
        }
      ],
      "name": "Harvest",
      "type": "event"
    },
    {
      "anonymous": false,
      "inputs": [
        {
          "indexed": true,
          "internalType": "address",
          "name": "previousOwner",
          "type": "address"
        },
        {
          "indexed": true,
          "internalType": "address",
          "name": "newOwner",
          "type": "address"
        }
      ],
      "name": "OwnershipTransferred",
      "type": "event"
    },
    {
      "anonymous": false,
      "inputs": [
        {
          "indexed": false,
          "internalType": "uint256",
          "name": "_amount",
          "type": "uint256"
        },
        {
          "indexed": false,
          "internalType": "uint256",
          "name": "_accumulatedFee",
          "type": "uint256"
        }
      ],
      "name": "RewardPay",
      "type": "event"
    },
    {
      "anonymous": false,
      "inputs": [
        {
          "indexed": false,
          "internalType": "uint256",
          "name": "_amount",
          "type": "uint256"
        }
      ],
      "name": "Withdraw",
      "type": "event"
    },
    {
      "inputs": [],
      "name": "MAX_LOOPS",
      "outputs": [
        {
          "internalType": "uint8",
          "name": "",
          "type": "uint8"
        }
      ],
      "stateMutability": "view",
      "type": "function"
    },
    {
      "inputs": [],
      "name": "PRECISION",
      "outputs": [
        {
          "internalType": "uint256",
          "name": "",
          "type": "uint256"
        }
      ],
      "stateMutability": "view",
      "type": "function"
    },
    {
      "inputs": [],
      "name": "accumulatedFee",
      "outputs": [
        {
          "internalType": "uint256",
          "name": "",
          "type": "uint256"
        }
      ],
      "stateMutability": "view",
      "type": "function"
    },
    {
      "inputs": [],
      "name": "compound",
      "outputs": [],
      "stateMutability": "nonpayable",
      "type": "function"
    },
    {
      "inputs": [
        {
          "internalType": "enum StakingLocks.LockType",
          "name": "_lockType",
          "type": "uint8"
        },
        {
          "internalType": "uint256",
          "name": "_amount",
          "type": "uint256"
        },
        {
          "internalType": "bool",
          "name": "_comp",
          "type": "bool"
        }
      ],
      "name": "deposit",
      "outputs": [],
      "stateMutability": "nonpayable",
      "type": "function"
    },
    {
      "inputs": [],
      "name": "erc20Deposit",
      "outputs": [
        {
          "internalType": "contract IERC20",
          "name": "",
          "type": "address"
        }
      ],
      "stateMutability": "view",
      "type": "function"
    },
    {
      "inputs": [],
      "name": "erc20Reward",
      "outputs": [
        {
          "internalType": "contract IERC20",
          "name": "",
          "type": "address"
        }
      ],
      "stateMutability": "view",
      "type": "function"
    },
    {
      "inputs": [
        {
          "internalType": "address",
          "name": "",
          "type": "address"
        }
      ],
      "name": "expirationDeposit",
      "outputs": [
        {
          "internalType": "uint256",
          "name": "",
          "type": "uint256"
        }
      ],
      "stateMutability": "view",
      "type": "function"
    },
    {
      "inputs": [],
      "name": "feePercent",
      "outputs": [
        {
          "internalType": "uint256",
          "name": "",
          "type": "uint256"
        }
      ],
      "stateMutability": "view",
      "type": "function"
    },
    {
      "inputs": [],
      "name": "feePrecision",
      "outputs": [
        {
          "internalType": "uint256",
          "name": "",
          "type": "uint256"
        }
      ],
      "stateMutability": "view",
      "type": "function"
    },
    {
      "inputs": [
        {
          "internalType": "address",
          "name": "_user",
          "type": "address"
        },
        {
          "internalType": "uint32",
          "name": "_lastRewardIndex",
          "type": "uint32"
        }
      ],
      "name": "getReward",
      "outputs": [
        {
          "internalType": "uint256",
          "name": "amount",
          "type": "uint256"
        },
        {
          "internalType": "uint32",
          "name": "lastRewardIndex",
          "type": "uint32"
        }
      ],
      "stateMutability": "view",
      "type": "function"
    },
    {
      "inputs": [],
      "name": "harvest",
      "outputs": [],
      "stateMutability": "nonpayable",
      "type": "function"
    },
    {
      "inputs": [
        {
          "internalType": "address",
          "name": "_erc20Deposit",
          "type": "address"
        },
        {
          "internalType": "address",
          "name": "_erc20Reward",
          "type": "address"
        }
      ],
      "name": "init",
      "outputs": [],
      "stateMutability": "nonpayable",
      "type": "function"
    },
    {
      "inputs": [],
      "name": "lastReward",
      "outputs": [
        {
          "internalType": "uint32",
          "name": "",
          "type": "uint32"
        }
      ],
      "stateMutability": "view",
      "type": "function"
    },
    {
      "inputs": [
        {
          "internalType": "enum StakingLocks.LockType",
          "name": "",
          "type": "uint8"
        }
      ],
      "name": "locks",
      "outputs": [
        {
          "internalType": "uint32",
          "name": "period",
          "type": "uint32"
        },
        {
          "internalType": "uint8",
          "name": "multiplicator",
          "type": "uint8"
        }
      ],
      "stateMutability": "view",
      "type": "function"
    },
    {
      "inputs": [
        {
          "internalType": "address",
          "name": "_user",
          "type": "address"
        }
      ],
      "name": "manyHarvests",
      "outputs": [
        {
          "internalType": "bool",
          "name": "",
          "type": "bool"
        }
      ],
      "stateMutability": "view",
      "type": "function"
    },
    {
      "inputs": [],
      "name": "owner",
      "outputs": [
        {
          "internalType": "address",
          "name": "",
          "type": "address"
        }
      ],
      "stateMutability": "view",
      "type": "function"
    },
    {
      "inputs": [],
      "name": "renounceOwnership",
      "outputs": [],
      "stateMutability": "nonpayable",
      "type": "function"
    },
    {
      "inputs": [
        {
          "internalType": "uint256",
          "name": "amount",
          "type": "uint256"
        }
      ],
      "name": "reward",
      "outputs": [],
      "stateMutability": "nonpayable",
      "type": "function"
    },
    {
      "inputs": [
        {
          "internalType": "enum StakingLocks.LockType",
          "name": "",
          "type": "uint8"
        },
        {
          "internalType": "uint32",
          "name": "",
          "type": "uint32"
        }
      ],
      "name": "rewards",
      "outputs": [
        {
          "internalType": "uint256",
          "name": "amount",
          "type": "uint256"
        },
        {
          "internalType": "uint256",
          "name": "totalStacked",
          "type": "uint256"
        }
      ],
      "stateMutability": "view",
      "type": "function"
    },
    {
      "inputs": [
        {
          "internalType": "uint256",
          "name": "_feePercent",
          "type": "uint256"
        },
        {
          "internalType": "uint256",
          "name": "_feePrecision",
          "type": "uint256"
        }
      ],
      "name": "setFee",
      "outputs": [],
      "stateMutability": "nonpayable",
      "type": "function"
    },
    {
      "inputs": [
        {
          "internalType": "bool",
          "name": "_flag",
          "type": "bool"
        }
      ],
      "name": "setUnlockAll",
      "outputs": [],
      "stateMutability": "nonpayable",
      "type": "function"
    },
    {
      "inputs": [
        {
          "internalType": "enum StakingLocks.LockType",
          "name": "_lockType",
          "type": "uint8"
        }
      ],
      "name": "stakedWithMultiplier",
      "outputs": [
        {
          "internalType": "uint256",
          "name": "",
          "type": "uint256"
        }
      ],
      "stateMutability": "view",
      "type": "function"
    },
    {
      "inputs": [],
      "name": "stakedWithMultipliers",
      "outputs": [
        {
          "internalType": "uint256",
          "name": "",
          "type": "uint256"
        }
      ],
      "stateMutability": "view",
      "type": "function"
    },
    {
      "inputs": [
        {
          "internalType": "enum StakingLocks.LockType",
          "name": "",
          "type": "uint8"
        }
      ],
      "name": "totalStacked",
      "outputs": [
        {
          "internalType": "uint256",
          "name": "",
          "type": "uint256"
        }
      ],
      "stateMutability": "view",
      "type": "function"
    },
    {
      "inputs": [
        {
          "internalType": "address",
          "name": "newOwner",
          "type": "address"
        }
      ],
      "name": "transferOwnership",
      "outputs": [],
      "stateMutability": "nonpayable",
      "type": "function"
    },
    {
      "inputs": [
        {
          "internalType": "address",
          "name": "",
          "type": "address"
        }
      ],
      "name": "userLastReward",
      "outputs": [
        {
          "internalType": "uint32",
          "name": "",
          "type": "uint32"
        }
      ],
      "stateMutability": "view",
      "type": "function"
    },
    {
      "inputs": [
        {
          "internalType": "address",
          "name": "",
          "type": "address"
        }
      ],
      "name": "userLock",
      "outputs": [
        {
          "internalType": "enum StakingLocks.LockType",
          "name": "",
          "type": "uint8"
        }
      ],
      "stateMutability": "view",
      "type": "function"
    },
    {
      "inputs": [
        {
          "internalType": "address",
          "name": "",
          "type": "address"
        }
      ],
      "name": "userStacked",
      "outputs": [
        {
          "internalType": "uint256",
          "name": "",
          "type": "uint256"
        }
      ],
      "stateMutability": "view",
      "type": "function"
    },
    {
      "inputs": [
        {
          "internalType": "uint256",
          "name": "amount",
          "type": "uint256"
        }
      ],
      "name": "withdraw",
      "outputs": [],
      "stateMutability": "nonpayable",
      "type": "function"
    }
  ],
  "bytecode": "0x60806040526040518060a00160405280600160058111156200004a577f4e487b7100000000000000000000000000000000000000000000000000000000600052602160045260246000fd5b600581111562000083577f4e487b7100000000000000000000000000000000000000000000000000000000600052602160045260246000fd5b815260200160026005811115620000c3577f4e487b7100000000000000000000000000000000000000000000000000000000600052602160045260246000fd5b6005811115620000fc577f4e487b7100000000000000000000000000000000000000000000000000000000600052602160045260246000fd5b8152602001600360058111156200013c577f4e487b7100000000000000000000000000000000000000000000000000000000600052602160045260246000fd5b600581111562000175577f4e487b7100000000000000000000000000000000000000000000000000000000600052602160045260246000fd5b815260200160046005811115620001b5577f4e487b7100000000000000000000000000000000000000000000000000000000600052602160045260246000fd5b6005811115620001ee577f4e487b7100000000000000000000000000000000000000000000000000000000600052602160045260246000fd5b81526020016005808111156200022d577f4e487b7100000000000000000000000000000000000000000000000000000000600052602160045260246000fd5b600581111562000266577f4e487b7100000000000000000000000000000000000000000000000000000000600052602160045260246000fd5b81525060019060056200027b92919062000353565b5060006006556103e86007553480156200029457600080fd5b506000620002a76200034b60201b60201c565b9050806000806101000a81548173ffffffffffffffffffffffffffffffffffffffff021916908373ffffffffffffffffffffffffffffffffffffffff1602179055508073ffffffffffffffffffffffffffffffffffffffff16600073ffffffffffffffffffffffffffffffffffffffff167f8be0079c531659141344cd1fd0a4f28419497f9722a3daafe3b4186f6b6457e060405160405180910390a35062000449565b600033905090565b826005601f01602090048101928215620004175791602002820160005b83821115620003e657835183826101000a81548160ff02191690836005811115620003c4577f4e487b7100000000000000000000000000000000000000000000000000000000600052602160045260246000fd5b0217905550926020019260010160208160000104928301926001030262000370565b8015620004155782816101000a81549060ff0219169055600101602081600001049283019260010302620003e6565b505b5090506200042691906200042a565b5090565b5b80821115620004455760008160009055506001016200042b565b5090565b6153ef80620004596000396000f3fe608060405234801561001057600080fd5b50600436106101da5760003560e01c80639e3cf02e11610104578063ca8689ee116100a2578063f09a401611610071578063f09a401614610570578063f2fde38b1461058c578063f69e2046146105a8578063f8ce3164146105b2576101da565b8063ca8689ee146104c1578063d03eb861146104df578063d17f742a14610510578063e313911814610540576101da565b8063aaf5eb68116100de578063aaf5eb6814610439578063b07d29c714610457578063c960e3ac14610473578063c9b17149146104a3576101da565b80639e3cf02e146103cf5780639f6f8a6a146103ed578063a9fb763c1461041d576101da565b80635617a6e81161017c5780637fd6f15c1161014b5780637fd6f15c1461034557806388c10f2a146103635780638d50f59f146103935780638da5cb5b146103b1576101da565b80635617a6e8146102aa5780637143e8c0146102da578063715018a61461030b578063725fd1a214610315576101da565b806335ff1e28116101b857806335ff1e281461024857806337a2eb71146102665780634641257d1461028457806352f7c9881461028e576101da565b806310028159146101df57806322f7efcb146102105780632e1a7d4d1461022c575b600080fd5b6101f960048036038101906101f49190614487565b6105d0565b604051610207929190614f31565b60405180910390f35b61022a60048036038101906102259190614438565b610601565b005b610246600480360381019061024191906144c3565b611551565b005b610250611c3c565b60405161025d9190614f16565b60405180910390f35b61026e611c42565b60405161027b9190614fc7565b60405180910390f35b61028c611c47565b005b6102a860048036038101906102a39190614515565b611ed5565b005b6102c460048036038101906102bf919061431c565b611f63565b6040516102d19190614c6b565b60405180910390f35b6102f460048036038101906102ef9190614381565b611f83565b604051610302929190614f5a565b60405180910390f35b610313612309565b005b61032f600480360381019061032a919061440f565b612443565b60405161033c9190614f16565b60405180910390f35b61034d61245b565b60405161035a9190614f16565b60405180910390f35b61037d6004803603810190610378919061431c565b612461565b60405161038a9190614f16565b60405180910390f35b61039b612479565b6040516103a89190614c50565b60405180910390f35b6103b961249f565b6040516103c69190614b91565b60405180910390f35b6103d76124c8565b6040516103e49190614c50565b60405180910390f35b6104076004803603810190610402919061431c565b6124ee565b6040516104149190614c35565b60405180910390f35b610437600480360381019061043291906144c3565b61252d565b005b610441612d72565b60405161044e9190614f16565b60405180910390f35b610471600480360381019061046c91906143bd565b612d7a565b005b61048d6004803603810190610488919061440f565b612e13565b60405161049a9190614f16565b60405180910390f35b6104ab612f5b565b6040516104b89190614f83565b60405180910390f35b6104c9612f71565b6040516104d69190614f16565b60405180910390f35b6104f960048036038101906104f4919061440f565b61300d565b604051610507929190614f9e565b60405180910390f35b61052a6004803603810190610525919061431c565b61304e565b6040516105379190614f83565b60405180910390f35b61055a6004803603810190610555919061431c565b613071565b6040516105679190614f16565b60405180910390f35b61058a60048036038101906105859190614345565b613089565b005b6105a660048036038101906105a1919061431c565b6131fe565b005b6105b06133a7565b005b6105ba613692565b6040516105c79190614f16565b60405180910390f35b600e602052816000526040600020602052806000526040600020600091509150508060000154908060010154905082565b60008211610644576040517f08c379a000000000000000000000000000000000000000000000000000000000815260040161063b90614ef6565b60405180910390fd5b81600360009054906101000a900473ffffffffffffffffffffffffffffffffffffffff1673ffffffffffffffffffffffffffffffffffffffff1663dd62ed3e61068b613698565b306040518363ffffffff1660e01b81526004016106a9929190614bac565b60206040518083038186803b1580156106c157600080fd5b505afa1580156106d5573d6000803e3d6000fd5b505050506040513d601f19601f820116820180604052508101906106f991906144ec565b101561073a576040517f08c379a000000000000000000000000000000000000000000000000000000000815260040161073190614e36565b60405180910390fd5b600060096000610748613698565b73ffffffffffffffffffffffffffffffffffffffff1673ffffffffffffffffffffffffffffffffffffffff16815260200190815260200160002060009054906101000a900460ff169050600060058111156107cc577f4e487b7100000000000000000000000000000000000000000000000000000000600052602160045260246000fd5b816005811115610805577f4e487b7100000000000000000000000000000000000000000000000000000000600052602160045260246000fd5b14806108815750806005811115610845577f4e487b7100000000000000000000000000000000000000000000000000000000600052602160045260246000fd5b84600581111561087e577f4e487b7100000000000000000000000000000000000000000000000000000000600052602160045260246000fd5b10155b6108c0576040517f08c379a00000000000000000000000000000000000000000000000000000000081526004016108b790614db6565b60405180910390fd5b6000600460009054906101000a900473ffffffffffffffffffffffffffffffffffffffff1673ffffffffffffffffffffffffffffffffffffffff16600360009054906101000a900473ffffffffffffffffffffffffffffffffffffffff1673ffffffffffffffffffffffffffffffffffffffff16141561098f576000610965600754610957876006546136a090919063ffffffff16565b6136b690919063ffffffff16565b90508085610973919061512f565b9150806005546109839190615014565b60058190555050610993565b8390505b6109e961099e613698565b3086600360009054906101000a900473ffffffffffffffffffffffffffffffffffffffff1673ffffffffffffffffffffffffffffffffffffffff166136cc909392919063ffffffff16565b816005811115610a22577f4e487b7100000000000000000000000000000000000000000000000000000000600052602160045260246000fd5b856005811115610a5b577f4e487b7100000000000000000000000000000000000000000000000000000000600052602160045260246000fd5b10610b8357600080610a75610a6e613698565b6000611f83565b91509150600860009054906101000a900463ffffffff1663ffffffff168163ffffffff1614610ad9576040517f08c379a0000000000000000000000000000000000000000000000000000000008152600401610ad090614d16565b60405180910390fd5b6000821115610b8057848015610b5e5750600460009054906101000a900473ffffffffffffffffffffffffffffffffffffffff1673ffffffffffffffffffffffffffffffffffffffff16600360009054906101000a900473ffffffffffffffffffffffffffffffffffffffff1673ffffffffffffffffffffffffffffffffffffffff16145b15610b7357610b6e848383613755565b610b7f565b610b7e8483836139ba565b5b5b50505b8460096000610b90613698565b73ffffffffffffffffffffffffffffffffffffffff1673ffffffffffffffffffffffffffffffffffffffff16815260200190815260200160002060006101000a81548160ff02191690836005811115610c12577f4e487b7100000000000000000000000000000000000000000000000000000000600052602160045260246000fd5b021790555060006005811115610c51577f4e487b7100000000000000000000000000000000000000000000000000000000600052602160045260246000fd5b826005811115610c8a577f4e487b7100000000000000000000000000000000000000000000000000000000600052602160045260246000fd5b1480610d055750816005811115610cca577f4e487b7100000000000000000000000000000000000000000000000000000000600052602160045260246000fd5b856005811115610d03577f4e487b7100000000000000000000000000000000000000000000000000000000600052602160045260246000fd5b145b15610ecf57610d6381600a6000610d1a613698565b73ffffffffffffffffffffffffffffffffffffffff1673ffffffffffffffffffffffffffffffffffffffff16815260200190815260200160002054613ab390919063ffffffff16565b600a6000610d6f613698565b73ffffffffffffffffffffffffffffffffffffffff1673ffffffffffffffffffffffffffffffffffffffff16815260200190815260200160002081905550610e4381600d6000886005811115610dee577f4e487b7100000000000000000000000000000000000000000000000000000000600052602160045260246000fd5b6005811115610e26577f4e487b7100000000000000000000000000000000000000000000000000000000600052602160045260246000fd5b815260200190815260200160002054613ab390919063ffffffff16565b600d6000876005811115610e80577f4e487b7100000000000000000000000000000000000000000000000000000000600052602160045260246000fd5b6005811115610eb8577f4e487b7100000000000000000000000000000000000000000000000000000000600052602160045260246000fd5b8152602001908152602001600020819055506112b2565b816005811115610f08577f4e487b7100000000000000000000000000000000000000000000000000000000600052602160045260246000fd5b856005811115610f41577f4e487b7100000000000000000000000000000000000000000000000000000000600052602160045260246000fd5b11156112b157611023600a6000610f56613698565b73ffffffffffffffffffffffffffffffffffffffff1673ffffffffffffffffffffffffffffffffffffffff16815260200190815260200160002054600d6000856005811115610fce577f4e487b7100000000000000000000000000000000000000000000000000000000600052602160045260246000fd5b6005811115611006577f4e487b7100000000000000000000000000000000000000000000000000000000600052602160045260246000fd5b815260200190815260200160002054613ac990919063ffffffff16565b600d6000846005811115611060577f4e487b7100000000000000000000000000000000000000000000000000000000600052602160045260246000fd5b6005811115611098577f4e487b7100000000000000000000000000000000000000000000000000000000600052602160045260246000fd5b81526020019081526020016000208190555061110381600a60006110ba613698565b73ffffffffffffffffffffffffffffffffffffffff1673ffffffffffffffffffffffffffffffffffffffff16815260200190815260200160002054613ab390919063ffffffff16565b600a600061110f613698565b73ffffffffffffffffffffffffffffffffffffffff1673ffffffffffffffffffffffffffffffffffffffff16815260200190815260200160002081905550611229600a600061115c613698565b73ffffffffffffffffffffffffffffffffffffffff1673ffffffffffffffffffffffffffffffffffffffff16815260200190815260200160002054600d60008860058111156111d4577f4e487b7100000000000000000000000000000000000000000000000000000000600052602160045260246000fd5b600581111561120c577f4e487b7100000000000000000000000000000000000000000000000000000000600052602160045260246000fd5b815260200190815260200160002054613ab390919063ffffffff16565b600d6000876005811115611266577f4e487b7100000000000000000000000000000000000000000000000000000000600052602160045260246000fd5b600581111561129e577f4e487b7100000000000000000000000000000000000000000000000000000000600052602160045260246000fd5b8152602001908152602001600020819055505b5b600860009054906101000a900463ffffffff16600c60006112d1613698565b73ffffffffffffffffffffffffffffffffffffffff1673ffffffffffffffffffffffffffffffffffffffff16815260200190815260200160002060006101000a81548163ffffffff021916908363ffffffff16021790555060006005811115611363577f4e487b7100000000000000000000000000000000000000000000000000000000600052602160045260246000fd5b82600581111561139c577f4e487b7100000000000000000000000000000000000000000000000000000000600052602160045260246000fd5b148061141757508160058111156113dc577f4e487b7100000000000000000000000000000000000000000000000000000000600052602160045260246000fd5b856005811115611415577f4e487b7100000000000000000000000000000000000000000000000000000000600052602160045260246000fd5b115b1561150f5760026000866005811115611459577f4e487b7100000000000000000000000000000000000000000000000000000000600052602160045260246000fd5b6005811115611491577f4e487b7100000000000000000000000000000000000000000000000000000000600052602160045260246000fd5b815260200190815260200160002060000160009054906101000a900463ffffffff1663ffffffff16426114c49190615014565b600b60006114d0613698565b73ffffffffffffffffffffffffffffffffffffffff1673ffffffffffffffffffffffffffffffffffffffff168152602001908152602001600020819055505b7fd42bb066022bc335a7416ea93e58076c615424965740cdeb2263132458823b1885858360405161154293929190614c86565b60405180910390a15050505050565b80600a600061155e613698565b73ffffffffffffffffffffffffffffffffffffffff1673ffffffffffffffffffffffffffffffffffffffff1681526020019081526020016000205410156115da576040517f08c379a00000000000000000000000000000000000000000000000000000000081526004016115d190614ed6565b60405180910390fd5b60006005811115611614577f4e487b7100000000000000000000000000000000000000000000000000000000600052602160045260246000fd5b60096000611620613698565b73ffffffffffffffffffffffffffffffffffffffff1673ffffffffffffffffffffffffffffffffffffffff16815260200190815260200160002060009054906101000a900460ff1660058111156116a0577f4e487b7100000000000000000000000000000000000000000000000000000000600052602160045260246000fd5b14156116e1576040517f08c379a00000000000000000000000000000000000000000000000000000000081526004016116d890614e16565b60405180910390fd5b600b60006116ed613698565b73ffffffffffffffffffffffffffffffffffffffff1673ffffffffffffffffffffffffffffffffffffffff168152602001908152602001600020544211806117415750600460159054906101000a900460ff165b611780576040517f08c379a000000000000000000000000000000000000000000000000000000000815260040161177790614d96565b60405180910390fd5b60008061179561178e613698565b6000611f83565b91509150600860009054906101000a900463ffffffff1663ffffffff168163ffffffff16146117f9576040517f08c379a00000000000000000000000000000000000000000000000000000000081526004016117f090614d16565b60405180910390fd5b60008211156118615761186060096000611811613698565b73ffffffffffffffffffffffffffffffffffffffff1673ffffffffffffffffffffffffffffffffffffffff16815260200190815260200160002060009054906101000a900460ff1683836139ba565b5b61194a83600d600060096000611875613698565b73ffffffffffffffffffffffffffffffffffffffff1673ffffffffffffffffffffffffffffffffffffffff16815260200190815260200160002060009054906101000a900460ff1660058111156118f5577f4e487b7100000000000000000000000000000000000000000000000000000000600052602160045260246000fd5b600581111561192d577f4e487b7100000000000000000000000000000000000000000000000000000000600052602160045260246000fd5b815260200190815260200160002054613ac990919063ffffffff16565b600d60006009600061195a613698565b73ffffffffffffffffffffffffffffffffffffffff1673ffffffffffffffffffffffffffffffffffffffff16815260200190815260200160002060009054906101000a900460ff1660058111156119da577f4e487b7100000000000000000000000000000000000000000000000000000000600052602160045260246000fd5b6005811115611a12577f4e487b7100000000000000000000000000000000000000000000000000000000600052602160045260246000fd5b815260200190815260200160002081905550611a7d83600a6000611a34613698565b73ffffffffffffffffffffffffffffffffffffffff1673ffffffffffffffffffffffffffffffffffffffff16815260200190815260200160002054613ac990919063ffffffff16565b600a6000611a89613698565b73ffffffffffffffffffffffffffffffffffffffff1673ffffffffffffffffffffffffffffffffffffffff168152602001908152602001600020819055506000600a6000611ad5613698565b73ffffffffffffffffffffffffffffffffffffffff1673ffffffffffffffffffffffffffffffffffffffff168152602001908152602001600020541415611bac57600060096000611b24613698565b73ffffffffffffffffffffffffffffffffffffffff1673ffffffffffffffffffffffffffffffffffffffff16815260200190815260200160002060006101000a81548160ff02191690836005811115611ba6577f4e487b7100000000000000000000000000000000000000000000000000000000600052602160045260246000fd5b02179055505b611c00611bb7613698565b84600360009054906101000a900473ffffffffffffffffffffffffffffffffffffffff1673ffffffffffffffffffffffffffffffffffffffff16613adf9092919063ffffffff16565b7f5b6b431d4476a211bb7d41c20d1aab9ae2321deee0d20be3d9fc9b1093fa6e3d83604051611c2f9190614f16565b60405180910390a1505050565b60075481565b606481565b60006005811115611c81577f4e487b7100000000000000000000000000000000000000000000000000000000600052602160045260246000fd5b60096000611c8d613698565b73ffffffffffffffffffffffffffffffffffffffff1673ffffffffffffffffffffffffffffffffffffffff16815260200190815260200160002060009054906101000a900460ff166005811115611d0d577f4e487b7100000000000000000000000000000000000000000000000000000000600052602160045260246000fd5b1415611d4e576040517f08c379a0000000000000000000000000000000000000000000000000000000008152600401611d4590614e16565b60405180910390fd5b600860009054906101000a900463ffffffff1663ffffffff16600c6000611d73613698565b73ffffffffffffffffffffffffffffffffffffffff1673ffffffffffffffffffffffffffffffffffffffff16815260200190815260200160002060009054906101000a900463ffffffff1663ffffffff161415611e05576040517f08c379a0000000000000000000000000000000000000000000000000000000008152600401611dfc90614e96565b60405180910390fd5b600080611e6f611e13613698565b600c6000611e1f613698565b73ffffffffffffffffffffffffffffffffffffffff1673ffffffffffffffffffffffffffffffffffffffff16815260200190815260200160002060009054906101000a900463ffffffff16611f83565b91509150611ed160096000611e82613698565b73ffffffffffffffffffffffffffffffffffffffff1673ffffffffffffffffffffffffffffffffffffffff16815260200190815260200160002060009054906101000a900460ff1683836139ba565b5050565b611edd613698565b73ffffffffffffffffffffffffffffffffffffffff16611efb61249f565b73ffffffffffffffffffffffffffffffffffffffff1614611f51576040517f08c379a0000000000000000000000000000000000000000000000000000000008152600401611f4890614df6565b60405180910390fd5b81600681905550806007819055505050565b60096020528060005260406000206000915054906101000a900460ff1681565b6000806000600190506000806005811115611fc7577f4e487b7100000000000000000000000000000000000000000000000000000000600052602160045260246000fd5b600960008873ffffffffffffffffffffffffffffffffffffffff1673ffffffffffffffffffffffffffffffffffffffff16815260200190815260200160002060009054906101000a900460ff16600581111561204c577f4e487b7100000000000000000000000000000000000000000000000000000000600052602160045260246000fd5b1415612072576000600860009054906101000a900463ffffffff16935093505050612302565b6000600a60008873ffffffffffffffffffffffffffffffffffffffff1673ffffffffffffffffffffffffffffffffffffffff1681526020019081526020016000205490506000808763ffffffff16141561211b57600c60008973ffffffffffffffffffffffffffffffffffffffff1673ffffffffffffffffffffffffffffffffffffffff16815260200190815260200160002060009054906101000a900463ffffffff1661211d565b865b90505b606460ff168460ff16111580156121545750600860009054906101000a900463ffffffff1663ffffffff168163ffffffff16105b156122f757808061216490615244565b915050838061217290615271565b9450506000600e6000600960008c73ffffffffffffffffffffffffffffffffffffffff1673ffffffffffffffffffffffffffffffffffffffff16815260200190815260200160002060009054906101000a900460ff166005811115612200577f4e487b7100000000000000000000000000000000000000000000000000000000600052602160045260246000fd5b6005811115612238577f4e487b7100000000000000000000000000000000000000000000000000000000600052602160045260246000fd5b815260200190815260200160002060008363ffffffff1663ffffffff1681526020019081526020016000206040518060400160405290816000820154815260200160018201548152505090506122ef6122e06305f5e1006122d284600001516122c486602001516122b66305f5e1008b6136a090919063ffffffff16565b6136b690919063ffffffff16565b6136a090919063ffffffff16565b6136b690919063ffffffff16565b85613ab390919063ffffffff16565b935050612120565b809450829550505050505b9250929050565b612311613698565b73ffffffffffffffffffffffffffffffffffffffff1661232f61249f565b73ffffffffffffffffffffffffffffffffffffffff1614612385576040517f08c379a000000000000000000000000000000000000000000000000000000000815260040161237c90614df6565b60405180910390fd5b600073ffffffffffffffffffffffffffffffffffffffff1660008054906101000a900473ffffffffffffffffffffffffffffffffffffffff1673ffffffffffffffffffffffffffffffffffffffff167f8be0079c531659141344cd1fd0a4f28419497f9722a3daafe3b4186f6b6457e060405160405180910390a360008060006101000a81548173ffffffffffffffffffffffffffffffffffffffff021916908373ffffffffffffffffffffffffffffffffffffffff160217905550565b600d6020528060005260406000206000915090505481565b60065481565b600b6020528060005260406000206000915090505481565b600360009054906101000a900473ffffffffffffffffffffffffffffffffffffffff1681565b60008060009054906101000a900473ffffffffffffffffffffffffffffffffffffffff16905090565b600460009054906101000a900473ffffffffffffffffffffffffffffffffffffffff1681565b60008060006124fe846000611f83565b91509150600860009054906101000a900463ffffffff1663ffffffff168163ffffffff16141592505050919050565b612535613698565b73ffffffffffffffffffffffffffffffffffffffff1661255361249f565b73ffffffffffffffffffffffffffffffffffffffff16146125a9576040517f08c379a00000000000000000000000000000000000000000000000000000000081526004016125a090614df6565b60405180910390fd5b600081116125ec576040517f08c379a00000000000000000000000000000000000000000000000000000000081526004016125e390614dd6565b60405180910390fd5b80600460009054906101000a900473ffffffffffffffffffffffffffffffffffffffff1673ffffffffffffffffffffffffffffffffffffffff1663dd62ed3e612633613698565b306040518363ffffffff1660e01b8152600401612651929190614bac565b60206040518083038186803b15801561266957600080fd5b505afa15801561267d573d6000803e3d6000fd5b505050506040513d601f19601f820116820180604052508101906126a191906144ec565b10156126e2576040517f08c379a00000000000000000000000000000000000000000000000000000000081526004016126d990614e36565b60405180910390fd5b6127386126ed613698565b3083600460009054906101000a900473ffffffffffffffffffffffffffffffffffffffff1673ffffffffffffffffffffffffffffffffffffffff166136cc909392919063ffffffff16565b6000612742612f71565b90506000600460009054906101000a900473ffffffffffffffffffffffffffffffffffffffff1673ffffffffffffffffffffffffffffffffffffffff16600360009054906101000a900473ffffffffffffffffffffffffffffffffffffffff1673ffffffffffffffffffffffffffffffffffffffff16146127c357826127d9565b6127d860055484613ab390919063ffffffff16565b5b90506000806001600860009054906101000a900463ffffffff166127fd919061506a565b905060005b60058160ff161015612d06576001600561281c919061512f565b8160ff161415612a3657600061283b8486613ac990919063ffffffff16565b90506040518060400160405280828152602001600d600060018660ff166005811061288f577f4e487b7100000000000000000000000000000000000000000000000000000000600052603260045260246000fd5b602091828204019190069054906101000a900460ff1660058111156128dd577f4e487b7100000000000000000000000000000000000000000000000000000000600052602160045260246000fd5b6005811115612915577f4e487b7100000000000000000000000000000000000000000000000000000000600052602160045260246000fd5b815260200190815260200160002054815250600e600060018560ff1660058110612968577f4e487b7100000000000000000000000000000000000000000000000000000000600052603260045260246000fd5b602091828204019190069054906101000a900460ff1660058111156129b6577f4e487b7100000000000000000000000000000000000000000000000000000000600052602160045260246000fd5b60058111156129ee577f4e487b7100000000000000000000000000000000000000000000000000000000600052602160045260246000fd5b815260200190815260200160002060008563ffffffff1663ffffffff168152602001908152602001600020600082015181600001556020820151816001015590505050612d06565b6000612a9360018360ff1660058110612a78577f4e487b7100000000000000000000000000000000000000000000000000000000600052603260045260246000fd5b602091828204019190069054906101000a900460ff16612e13565b90506000612ac087612ab26305f5e100856136a090919063ffffffff16565b6136b690919063ffffffff16565b90506000612aed6305f5e100612adf89856136a090919063ffffffff16565b6136b690919063ffffffff16565b90506040518060400160405280828152602001600d600060018860ff1660058110612b41577f4e487b7100000000000000000000000000000000000000000000000000000000600052603260045260246000fd5b602091828204019190069054906101000a900460ff166005811115612b8f577f4e487b7100000000000000000000000000000000000000000000000000000000600052602160045260246000fd5b6005811115612bc7577f4e487b7100000000000000000000000000000000000000000000000000000000600052602160045260246000fd5b815260200190815260200160002054815250600e600060018760ff1660058110612c1a577f4e487b7100000000000000000000000000000000000000000000000000000000600052603260045260246000fd5b602091828204019190069054906101000a900460ff166005811115612c68577f4e487b7100000000000000000000000000000000000000000000000000000000600052602160045260246000fd5b6005811115612ca0577f4e487b7100000000000000000000000000000000000000000000000000000000600052602160045260246000fd5b815260200190815260200160002060008763ffffffff1663ffffffff16815260200190815260200160002060008201518160000155602082015181600101559050508086612cee9190615014565b95505050508080612cfe90615271565b915050612802565b5080600860006101000a81548163ffffffff021916908363ffffffff1602179055507f511bb6e9e69d3477c8790b56d57c156144c962089ae6cd11d828109fb56cffe285600554604051612d5b929190614f31565b60405180910390a160006005819055505050505050565b6305f5e10081565b612d82613698565b73ffffffffffffffffffffffffffffffffffffffff16612da061249f565b73ffffffffffffffffffffffffffffffffffffffff1614612df6576040517f08c379a0000000000000000000000000000000000000000000000000000000008152600401612ded90614df6565b60405180910390fd5b80600460156101000a81548160ff02191690831515021790555050565b6000612f54600a612f4660026000866005811115612e5a577f4e487b7100000000000000000000000000000000000000000000000000000000600052602160045260246000fd5b6005811115612e92577f4e487b7100000000000000000000000000000000000000000000000000000000600052602160045260246000fd5b815260200190815260200160002060000160049054906101000a900460ff1660ff16600d6000876005811115612ef1577f4e487b7100000000000000000000000000000000000000000000000000000000600052602160045260246000fd5b6005811115612f29577f4e487b7100000000000000000000000000000000000000000000000000000000600052602160045260246000fd5b8152602001908152602001600020546136a090919063ffffffff16565b6136b690919063ffffffff16565b9050919050565b600860009054906101000a900463ffffffff1681565b60008060005b60058160ff16101561300557612ff0612fe160018360ff1660058110612fc6577f4e487b7100000000000000000000000000000000000000000000000000000000600052603260045260246000fd5b602091828204019190069054906101000a900460ff16612e13565b83613ab390919063ffffffff16565b91508080612ffd90615271565b915050612f77565b508091505090565b60026020528060005260406000206000915090508060000160009054906101000a900463ffffffff16908060000160049054906101000a900460ff16905082565b600c6020528060005260406000206000915054906101000a900463ffffffff1681565b600a6020528060005260406000206000915090505481565b613091613698565b73ffffffffffffffffffffffffffffffffffffffff166130af61249f565b73ffffffffffffffffffffffffffffffffffffffff1614613105576040517f08c379a00000000000000000000000000000000000000000000000000000000081526004016130fc90614df6565b60405180910390fd5b600460149054906101000a900460ff1615613155576040517f08c379a000000000000000000000000000000000000000000000000000000000815260040161314c90614e76565b60405180910390fd5b81600360006101000a81548173ffffffffffffffffffffffffffffffffffffffff021916908373ffffffffffffffffffffffffffffffffffffffff16021790555080600460006101000a81548173ffffffffffffffffffffffffffffffffffffffff021916908373ffffffffffffffffffffffffffffffffffffffff1602179055506131df613b65565b6001600460146101000a81548160ff0219169083151502179055505050565b613206613698565b73ffffffffffffffffffffffffffffffffffffffff1661322461249f565b73ffffffffffffffffffffffffffffffffffffffff161461327a576040517f08c379a000000000000000000000000000000000000000000000000000000000815260040161327190614df6565b60405180910390fd5b600073ffffffffffffffffffffffffffffffffffffffff168173ffffffffffffffffffffffffffffffffffffffff1614156132ea576040517f08c379a00000000000000000000000000000000000000000000000000000000081526004016132e190614d36565b60405180910390fd5b8073ffffffffffffffffffffffffffffffffffffffff1660008054906101000a900473ffffffffffffffffffffffffffffffffffffffff1673ffffffffffffffffffffffffffffffffffffffff167f8be0079c531659141344cd1fd0a4f28419497f9722a3daafe3b4186f6b6457e060405160405180910390a3806000806101000a81548173ffffffffffffffffffffffffffffffffffffffff021916908373ffffffffffffffffffffffffffffffffffffffff16021790555050565b600060058111156133e1577f4e487b7100000000000000000000000000000000000000000000000000000000600052602160045260246000fd5b600960006133ed613698565b73ffffffffffffffffffffffffffffffffffffffff1673ffffffffffffffffffffffffffffffffffffffff16815260200190815260200160002060009054906101000a900460ff16600581111561346d577f4e487b7100000000000000000000000000000000000000000000000000000000600052602160045260246000fd5b14156134ae576040517f08c379a00000000000000000000000000000000000000000000000000000000081526004016134a590614e16565b60405180910390fd5b600460009054906101000a900473ffffffffffffffffffffffffffffffffffffffff1673ffffffffffffffffffffffffffffffffffffffff16600360009054906101000a900473ffffffffffffffffffffffffffffffffffffffff1673ffffffffffffffffffffffffffffffffffffffff1614613560576040517f08c379a000000000000000000000000000000000000000000000000000000000815260040161355790614d56565b60405180910390fd5b600860009054906101000a900463ffffffff1663ffffffff16600c6000613585613698565b73ffffffffffffffffffffffffffffffffffffffff1673ffffffffffffffffffffffffffffffffffffffff16815260200190815260200160002060009054906101000a900463ffffffff1663ffffffff161415613617576040517f08c379a000000000000000000000000000000000000000000000000000000000815260040161360e90614e96565b60405180910390fd5b60008061362c613625613698565b6000611f83565b9150915061368e6009600061363f613698565b73ffffffffffffffffffffffffffffffffffffffff1673ffffffffffffffffffffffffffffffffffffffff16815260200190815260200160002060009054906101000a900460ff168383613755565b5050565b60055481565b600033905090565b600081836136ae91906150d5565b905092915050565b600081836136c491906150a4565b905092915050565b61374f846323b872dd60e01b8585856040516024016136ed93929190614bd5565b604051602081830303815290604052907bffffffffffffffffffffffffffffffffffffffffffffffffffffffff19166020820180517bffffffffffffffffffffffffffffffffffffffffffffffffffffffff838183161783525050505061401c565b50505050565b6137ae82600a6000613765613698565b73ffffffffffffffffffffffffffffffffffffffff1673ffffffffffffffffffffffffffffffffffffffff16815260200190815260200160002054613ab390919063ffffffff16565b600a60006137ba613698565b73ffffffffffffffffffffffffffffffffffffffff1673ffffffffffffffffffffffffffffffffffffffff1681526020019081526020016000208190555061388e82600d6000866005811115613839577f4e487b7100000000000000000000000000000000000000000000000000000000600052602160045260246000fd5b6005811115613871577f4e487b7100000000000000000000000000000000000000000000000000000000600052602160045260246000fd5b815260200190815260200160002054613ab390919063ffffffff16565b600d60008560058111156138cb577f4e487b7100000000000000000000000000000000000000000000000000000000600052602160045260246000fd5b6005811115613903577f4e487b7100000000000000000000000000000000000000000000000000000000600052602160045260246000fd5b81526020019081526020016000208190555080600c6000613922613698565b73ffffffffffffffffffffffffffffffffffffffff1673ffffffffffffffffffffffffffffffffffffffff16815260200190815260200160002060006101000a81548163ffffffff021916908363ffffffff1602179055507f99a2ce12b0e009e5696a913c2dd72b3b444cbf1741ffd3a9f241b9d71b364f238383836040516139ad93929190614cbd565b60405180910390a1505050565b80600c60006139c7613698565b73ffffffffffffffffffffffffffffffffffffffff1673ffffffffffffffffffffffffffffffffffffffff16815260200190815260200160002060006101000a81548163ffffffff021916908363ffffffff160217905550613a73613a2a613698565b83600460009054906101000a900473ffffffffffffffffffffffffffffffffffffffff1673ffffffffffffffffffffffffffffffffffffffff16613adf9092919063ffffffff16565b7f1cba73c85d3b8253c47ae88a86a3dce6e18d417d06ddbc156faff7a764041e2d838383604051613aa693929190614cbd565b60405180910390a1505050565b60008183613ac19190615014565b905092915050565b60008183613ad7919061512f565b905092915050565b613b608363a9059cbb60e01b8484604051602401613afe929190614c0c565b604051602081830303815290604052907bffffffffffffffffffffffffffffffffffffffffffffffffffffffff19166020820180517bffffffffffffffffffffffffffffffffffffffffffffffffffffffff838183161783525050505061401c565b505050565b6040518060400160405280610e1063ffffffff168152602001600a60ff168152506002600060016005811115613bc4577f4e487b7100000000000000000000000000000000000000000000000000000000600052602160045260246000fd5b6005811115613bfc577f4e487b7100000000000000000000000000000000000000000000000000000000600052602160045260246000fd5b815260200190815260200160002060008201518160000160006101000a81548163ffffffff021916908363ffffffff16021790555060208201518160000160046101000a81548160ff021916908360ff160217905550905050604051806040016040528062278d0063ffffffff168152602001600c60ff168152506002600060026005811115613cb5577f4e487b7100000000000000000000000000000000000000000000000000000000600052602160045260246000fd5b6005811115613ced577f4e487b7100000000000000000000000000000000000000000000000000000000600052602160045260246000fd5b815260200190815260200160002060008201518160000160006101000a81548163ffffffff021916908363ffffffff16021790555060208201518160000160046101000a81548160ff021916908360ff160217905550905050604051806040016040528062ed4e0063ffffffff168152602001600d60ff168152506002600060036005811115613da6577f4e487b7100000000000000000000000000000000000000000000000000000000600052602160045260246000fd5b6005811115613dde577f4e487b7100000000000000000000000000000000000000000000000000000000600052602160045260246000fd5b815260200190815260200160002060008201518160000160006101000a81548163ffffffff021916908363ffffffff16021790555060208201518160000160046101000a81548160ff021916908360ff16021790555090505060405180604001604052806301e1338063ffffffff168152602001600f60ff168152506002600060046005811115613e98577f4e487b7100000000000000000000000000000000000000000000000000000000600052602160045260246000fd5b6005811115613ed0577f4e487b7100000000000000000000000000000000000000000000000000000000600052602160045260246000fd5b815260200190815260200160002060008201518160000160006101000a81548163ffffffff021916908363ffffffff16021790555060208201518160000160046101000a81548160ff021916908360ff16021790555090505060405180604001604052806303c2670063ffffffff168152602001601460ff1681525060026000600580811115613f89577f4e487b7100000000000000000000000000000000000000000000000000000000600052602160045260246000fd5b6005811115613fc1577f4e487b7100000000000000000000000000000000000000000000000000000000600052602160045260246000fd5b815260200190815260200160002060008201518160000160006101000a81548163ffffffff021916908363ffffffff16021790555060208201518160000160046101000a81548160ff021916908360ff160217905550905050565b600061407e826040518060400160405280602081526020017f5361666545524332303a206c6f772d6c6576656c2063616c6c206661696c65648152508573ffffffffffffffffffffffffffffffffffffffff166140e39092919063ffffffff16565b90506000815111156140de578080602001905181019061409e91906143e6565b6140dd576040517f08c379a00000000000000000000000000000000000000000000000000000000081526004016140d490614eb6565b60405180910390fd5b5b505050565b60606140f284846000856140fb565b90509392505050565b606082471015614140576040517f08c379a000000000000000000000000000000000000000000000000000000000815260040161413790614d76565b60405180910390fd5b6141498561420f565b614188576040517f08c379a000000000000000000000000000000000000000000000000000000000815260040161417f90614e56565b60405180910390fd5b6000808673ffffffffffffffffffffffffffffffffffffffff1685876040516141b19190614b7a565b60006040518083038185875af1925050503d80600081146141ee576040519150601f19603f3d011682016040523d82523d6000602084013e6141f3565b606091505b5091509150614203828286614222565b92505050949350505050565b600080823b905060008111915050919050565b6060831561423257829050614282565b6000835111156142455782518084602001fd5b816040517f08c379a00000000000000000000000000000000000000000000000000000000081526004016142799190614cf4565b60405180910390fd5b9392505050565b6000813590506142988161534d565b92915050565b6000813590506142ad81615364565b92915050565b6000815190506142c281615364565b92915050565b6000813590506142d78161537b565b92915050565b6000813590506142ec8161538b565b92915050565b6000815190506143018161538b565b92915050565b600081359050614316816153a2565b92915050565b60006020828403121561432e57600080fd5b600061433c84828501614289565b91505092915050565b6000806040838503121561435857600080fd5b600061436685828601614289565b925050602061437785828601614289565b9150509250929050565b6000806040838503121561439457600080fd5b60006143a285828601614289565b92505060206143b385828601614307565b9150509250929050565b6000602082840312156143cf57600080fd5b60006143dd8482850161429e565b91505092915050565b6000602082840312156143f857600080fd5b6000614406848285016142b3565b91505092915050565b60006020828403121561442157600080fd5b600061442f848285016142c8565b91505092915050565b60008060006060848603121561444d57600080fd5b600061445b868287016142c8565b935050602061446c868287016142dd565b925050604061447d8682870161429e565b9150509250925092565b6000806040838503121561449a57600080fd5b60006144a8858286016142c8565b92505060206144b985828601614307565b9150509250929050565b6000602082840312156144d557600080fd5b60006144e3848285016142dd565b91505092915050565b6000602082840312156144fe57600080fd5b600061450c848285016142f2565b91505092915050565b6000806040838503121561452857600080fd5b6000614536858286016142dd565b9250506020614547858286016142dd565b9150509250929050565b61455a81615163565b82525050565b61456981615175565b82525050565b600061457a82614fe2565b6145848185614ff8565b9350614594818560208601615211565b80840191505092915050565b6145a9816151db565b82525050565b6145b8816151ff565b82525050565b60006145c982614fed565b6145d38185615003565b93506145e3818560208601615211565b6145ec81615328565b840191505092915050565b6000614604602783615003565b91507f57652063616e6e6f74206765742072657761726420696e206f6e65207472616e60008301527f73616374696f6e000000000000000000000000000000000000000000000000006020830152604082019050919050565b600061466a602683615003565b91507f4f776e61626c653a206e6577206f776e657220697320746865207a65726f206160008301527f64647265737300000000000000000000000000000000000000000000000000006020830152604082019050919050565b60006146d0601483615003565b91507f4d6574686f64206e6f7420617661696c61626c650000000000000000000000006000830152602082019050919050565b6000614710602683615003565b91507f416464726573733a20696e73756666696369656e742062616c616e636520666f60008301527f722063616c6c00000000000000000000000000000000000000000000000000006020830152604082019050919050565b6000614776602a83615003565b91507f45787069726174696f6e2074696d65206f6620746865206465706f736974206960008301527f73206e6f74206f766572000000000000000000000000000000000000000000006020830152604082019050919050565b60006147dc602783615003565b91507f596f752063616e6e6f74206465637265617365207468652074696d65206f662060008301527f6c6f636b696e67000000000000000000000000000000000000000000000000006020830152604082019050919050565b6000614842602983615003565b91507f54686520616d6f756e74206f662074686520726577617264206d757374206e6f60008301527f74206265207a65726f00000000000000000000000000000000000000000000006020830152604082019050919050565b60006148a8602083615003565b91507f4f776e61626c653a2063616c6c6572206973206e6f7420746865206f776e65726000830152602082019050919050565b60006148e8601d83615003565b91507f596f7520646f206e6f742068617665206c6f636b656420746f6b656e730000006000830152602082019050919050565b6000614928601483615003565b91507f4e6f7420656e6f75676820616c6c6f77616e63650000000000000000000000006000830152602082019050919050565b6000614968601d83615003565b91507f416464726573733a2063616c6c20746f206e6f6e2d636f6e74726163740000006000830152602082019050919050565b60006149a8600b83615003565b91507f496e697469616c697a65640000000000000000000000000000000000000000006000830152602082019050919050565b60006149e8601e83615003565b91507f596f752068617665206e6f20616363756d756c617465642072657761726400006000830152602082019050919050565b6000614a28602a83615003565b91507f5361666545524332303a204552433230206f7065726174696f6e20646964206e60008301527f6f742073756363656564000000000000000000000000000000000000000000006020830152604082019050919050565b6000614a8e602683615003565b91507f5769746864726177616c20616d6f756e74206973206d6f7265207468616e206260008301527f616c616e636500000000000000000000000000000000000000000000000000006020830152604082019050919050565b6000614af4602a83615003565b91507f54686520616d6f756e74206f6620746865206465706f736974206d757374206e60008301527f6f74206265207a65726f000000000000000000000000000000000000000000006020830152604082019050919050565b614b56816151b4565b82525050565b614b65816151be565b82525050565b614b74816151ce565b82525050565b6000614b86828461456f565b915081905092915050565b6000602082019050614ba66000830184614551565b92915050565b6000604082019050614bc16000830185614551565b614bce6020830184614551565b9392505050565b6000606082019050614bea6000830186614551565b614bf76020830185614551565b614c046040830184614b4d565b949350505050565b6000604082019050614c216000830185614551565b614c2e6020830184614b4d565b9392505050565b6000602082019050614c4a6000830184614560565b92915050565b6000602082019050614c6560008301846145a0565b92915050565b6000602082019050614c8060008301846145af565b92915050565b6000606082019050614c9b60008301866145af565b614ca86020830185614b4d565b614cb56040830184614b4d565b949350505050565b6000606082019050614cd260008301866145af565b614cdf6020830185614b4d565b614cec6040830184614b5c565b949350505050565b60006020820190508181036000830152614d0e81846145be565b905092915050565b60006020820190508181036000830152614d2f816145f7565b9050919050565b60006020820190508181036000830152614d4f8161465d565b9050919050565b60006020820190508181036000830152614d6f816146c3565b9050919050565b60006020820190508181036000830152614d8f81614703565b9050919050565b60006020820190508181036000830152614daf81614769565b9050919050565b60006020820190508181036000830152614dcf816147cf565b9050919050565b60006020820190508181036000830152614def81614835565b9050919050565b60006020820190508181036000830152614e0f8161489b565b9050919050565b60006020820190508181036000830152614e2f816148db565b9050919050565b60006020820190508181036000830152614e4f8161491b565b9050919050565b60006020820190508181036000830152614e6f8161495b565b9050919050565b60006020820190508181036000830152614e8f8161499b565b9050919050565b60006020820190508181036000830152614eaf816149db565b9050919050565b60006020820190508181036000830152614ecf81614a1b565b9050919050565b60006020820190508181036000830152614eef81614a81565b9050919050565b60006020820190508181036000830152614f0f81614ae7565b9050919050565b6000602082019050614f2b6000830184614b4d565b92915050565b6000604082019050614f466000830185614b4d565b614f536020830184614b4d565b9392505050565b6000604082019050614f6f6000830185614b4d565b614f7c6020830184614b5c565b9392505050565b6000602082019050614f986000830184614b5c565b92915050565b6000604082019050614fb36000830185614b5c565b614fc06020830184614b6b565b9392505050565b6000602082019050614fdc6000830184614b6b565b92915050565b600081519050919050565b600081519050919050565b600081905092915050565b600082825260208201905092915050565b600061501f826151b4565b915061502a836151b4565b9250827fffffffffffffffffffffffffffffffffffffffffffffffffffffffffffffffff0382111561505f5761505e61529b565b5b828201905092915050565b6000615075826151be565b9150615080836151be565b92508263ffffffff038211156150995761509861529b565b5b828201905092915050565b60006150af826151b4565b91506150ba836151b4565b9250826150ca576150c96152ca565b5b828204905092915050565b60006150e0826151b4565b91506150eb836151b4565b9250817fffffffffffffffffffffffffffffffffffffffffffffffffffffffffffffffff04831182151516156151245761512361529b565b5b828202905092915050565b600061513a826151b4565b9150615145836151b4565b9250828210156151585761515761529b565b5b828203905092915050565b600061516e82615194565b9050919050565b60008115159050919050565b600081905061518f82615339565b919050565b600073ffffffffffffffffffffffffffffffffffffffff82169050919050565b6000819050919050565b600063ffffffff82169050919050565b600060ff82169050919050565b60006151e6826151ed565b9050919050565b60006151f882615194565b9050919050565b600061520a82615181565b9050919050565b60005b8381101561522f578082015181840152602081019050615214565b8381111561523e576000848401525b50505050565b600061524f826151be565b915063ffffffff8214156152665761526561529b565b5b600182019050919050565b600061527c826151ce565b915060ff8214156152905761528f61529b565b5b600182019050919050565b7f4e487b7100000000000000000000000000000000000000000000000000000000600052601160045260246000fd5b7f4e487b7100000000000000000000000000000000000000000000000000000000600052601260045260246000fd5b7f4e487b7100000000000000000000000000000000000000000000000000000000600052602160045260246000fd5b6000601f19601f8301169050919050565b6006811061534a576153496152f9565b5b50565b61535681615163565b811461536157600080fd5b50565b61536d81615175565b811461537857600080fd5b50565b6006811061538857600080fd5b50565b615394816151b4565b811461539f57600080fd5b50565b6153ab816151be565b81146153b657600080fd5b5056fea264697066735822122090ca55a69ec2faf747ba2b60e0f0f2041c305760d76fc67e67635e9cf783d0bd64736f6c63430008000033",
  "linkReferences": {},
  "deployedLinkReferences": {}
}