{
  "_format": "hh-sol-artifact-1",
  "contractName": "StakingLocks",
  "sourceName": "contracts/StakingLocks.sol",
  "abi": [
    {
      "inputs": [
        {
          "internalType": "enum StakingLocks.LockType",
          "name": "",
          "type": "uint8"
        }
      ],
      "name": "locks",
      "outputs": [
        {
          "internalType": "uint32",
          "name": "period",
          "type": "uint32"
        },
        {
          "internalType": "uint8",
          "name": "multiplicator",
          "type": "uint8"
        }
      ],
      "stateMutability": "view",
      "type": "function"
    }
  ],
  "bytecode": "0x60806040526040518060a0016040528060016005811115610049577f4e487b7100000000000000000000000000000000000000000000000000000000600052602160045260246000fd5b6005811115610081577f4e487b7100000000000000000000000000000000000000000000000000000000600052602160045260246000fd5b8152602001600260058111156100c0577f4e487b7100000000000000000000000000000000000000000000000000000000600052602160045260246000fd5b60058111156100f8577f4e487b7100000000000000000000000000000000000000000000000000000000600052602160045260246000fd5b815260200160036005811115610137577f4e487b7100000000000000000000000000000000000000000000000000000000600052602160045260246000fd5b600581111561016f577f4e487b7100000000000000000000000000000000000000000000000000000000600052602160045260246000fd5b8152602001600460058111156101ae577f4e487b7100000000000000000000000000000000000000000000000000000000600052602160045260246000fd5b60058111156101e6577f4e487b7100000000000000000000000000000000000000000000000000000000600052602160045260246000fd5b8152602001600580811115610224577f4e487b7100000000000000000000000000000000000000000000000000000000600052602160045260246000fd5b600581111561025c577f4e487b7100000000000000000000000000000000000000000000000000000000600052602160045260246000fd5b815250600090600561026f929190610282565b5034801561027c57600080fd5b5061036e565b826005601f016020900481019282156103405791602002820160005b8382111561031157835183826101000a81548160ff021916908360058111156102f0577f4e487b7100000000000000000000000000000000000000000000000000000000600052602160045260246000fd5b0217905550926020019260010160208160000104928301926001030261029e565b801561033e5782816101000a81549060ff0219169055600101602081600001049283019260010302610311565b505b50905061034d9190610351565b5090565b5b8082111561036a576000816000905550600101610352565b5090565b61018a8061037d6000396000f3fe608060405234801561001057600080fd5b506004361061002b5760003560e01c8063d03eb86114610030575b600080fd5b61004a600480360381019061004591906100b7565b610061565b6040516100589291906100fe565b60405180910390f35b60016020528060005260406000206000915090508060000160009054906101000a900463ffffffff16908060000160049054906101000a900460ff16905082565b6000813590506100b181610144565b92915050565b6000602082840312156100c957600080fd5b60006100d7848285016100a2565b91505092915050565b6100e981610127565b82525050565b6100f881610137565b82525050565b600060408201905061011360008301856100e0565b61012060208301846100ef565b9392505050565b600063ffffffff82169050919050565b600060ff82169050919050565b6006811061015157600080fd5b5056fea2646970667358221220977c89fa2eff001adead2b6a19651054c86cbaa9551104619df480da0b6692dc64736f6c63430008000033",
  "linkReferences": {},
  "deployedLinkReferences": {}
}